{
  "_format": "hh-sol-artifact-1",
  "contractName": "NFT",
  "sourceName": "contracts/NFT.sol",
  "abi": [
    {
      "inputs": [
        {
          "internalType": "string",
          "name": "collectionName",
          "type": "string"
        },
        {
          "internalType": "string",
          "name": "uri",
          "type": "string"
        },
        {
          "internalType": "uint256",
          "name": "totalMints",
          "type": "uint256"
        },
        {
          "internalType": "uint256",
          "name": "limits",
          "type": "uint256"
        },
        {
          "internalType": "uint256",
          "name": "price",
          "type": "uint256"
        }
      ],
      "name": "addCollection",
      "outputs": [],
      "stateMutability": "nonpayable",
      "type": "function"
    },
    {
      "inputs": [],
      "stateMutability": "nonpayable",
      "type": "constructor"
    },
    {
      "anonymous": false,
      "inputs": [
        {
          "indexed": true,
          "internalType": "address",
          "name": "owner",
          "type": "address"
        },
        {
          "indexed": true,
          "internalType": "address",
          "name": "approved",
          "type": "address"
        },
        {
          "indexed": true,
          "internalType": "uint256",
          "name": "tokenId",
          "type": "uint256"
        }
      ],
      "name": "Approval",
      "type": "event"
    },
    {
      "anonymous": false,
      "inputs": [
        {
          "indexed": true,
          "internalType": "address",
          "name": "owner",
          "type": "address"
        },
        {
          "indexed": true,
          "internalType": "address",
          "name": "operator",
          "type": "address"
        },
        {
          "indexed": false,
          "internalType": "bool",
          "name": "approved",
          "type": "bool"
        }
      ],
      "name": "ApprovalForAll",
      "type": "event"
    },
    {
      "inputs": [
        {
          "internalType": "address",
          "name": "to",
          "type": "address"
        },
        {
          "internalType": "uint256",
          "name": "tokenId",
          "type": "uint256"
        }
      ],
      "name": "approve",
      "outputs": [],
      "stateMutability": "nonpayable",
      "type": "function"
    },
    {
      "inputs": [
        {
          "internalType": "uint256",
          "name": "_collectionId",
          "type": "uint256"
        },
        {
          "internalType": "uint256",
          "name": "_tokenId",
          "type": "uint256"
        }
      ],
      "name": "buyNFT",
      "outputs": [],
      "stateMutability": "nonpayable",
      "type": "function"
    },
    {
      "inputs": [
        {
          "internalType": "uint256",
          "name": "_collectionId",
          "type": "uint256"
        },
        {
          "internalType": "uint256",
          "name": "_tokenId",
          "type": "uint256"
        }
      ],
      "name": "cancelListing",
      "outputs": [],
      "stateMutability": "nonpayable",
      "type": "function"
    },
    {
      "anonymous": false,
      "inputs": [
        {
          "indexed": true,
          "internalType": "uint256",
          "name": "id",
          "type": "uint256"
        },
        {
          "indexed": false,
          "internalType": "string",
          "name": "name",
          "type": "string"
        },
        {
          "indexed": false,
          "internalType": "string",
          "name": "collectionUri",
          "type": "string"
        },
        {
          "indexed": false,
          "internalType": "uint256",
          "name": "totalMints",
          "type": "uint256"
        },
        {
          "indexed": false,
          "internalType": "uint256",
          "name": "limits",
          "type": "uint256"
        },
        {
          "indexed": false,
          "internalType": "uint256",
          "name": "price",
          "type": "uint256"
        }
      ],
      "name": "CollectionCreated",
      "type": "event"
    },
    {
      "anonymous": false,
      "inputs": [
        {
          "indexed": true,
          "internalType": "address",
          "name": "owner",
          "type": "address"
        },
        {
          "indexed": true,
          "internalType": "address",
          "name": "receiver",
          "type": "address"
        },
        {
          "indexed": false,
          "internalType": "uint256",
          "name": "tokenId",
          "type": "uint256"
        },
        {
          "indexed": false,
          "internalType": "uint256",
          "name": "collectionId",
          "type": "uint256"
        }
      ],
      "name": "Gift",
      "type": "event"
    },
    {
      "inputs": [
        {
          "internalType": "address",
          "name": "_to",
          "type": "address"
        },
        {
          "internalType": "uint256",
          "name": "_tokenId",
          "type": "uint256"
        },
        {
          "internalType": "uint256",
          "name": "_collectionId",
          "type": "uint256"
        }
      ],
      "name": "giftNFT",
      "outputs": [],
      "stateMutability": "nonpayable",
      "type": "function"
    },
    {
      "inputs": [
        {
          "internalType": "uint256",
          "name": "_collectionId",
          "type": "uint256"
        },
        {
          "internalType": "uint256",
          "name": "_tokenId",
          "type": "uint256"
        },
        {
          "internalType": "uint256",
          "name": "_price",
          "type": "uint256"
        }
      ],
      "name": "listToken",
      "outputs": [],
      "stateMutability": "nonpayable",
      "type": "function"
    },
    {
      "anonymous": false,
      "inputs": [
        {
          "indexed": false,
          "internalType": "uint256",
          "name": "_mintingPrice",
          "type": "uint256"
        }
      ],
      "name": "MintingPriceChanged",
      "type": "event"
    },
    {
      "inputs": [
        {
          "internalType": "uint256",
          "name": "collectionId",
          "type": "uint256"
        }
      ],
      "name": "mintToken",
      "outputs": [
        {
          "internalType": "uint256",
          "name": "",
          "type": "uint256"
        }
      ],
      "stateMutability": "nonpayable",
      "type": "function"
    },
    {
      "anonymous": false,
      "inputs": [
        {
          "indexed": true,
          "internalType": "address",
          "name": "previousOwner",
          "type": "address"
        },
        {
          "indexed": true,
          "internalType": "address",
          "name": "newOwner",
          "type": "address"
        }
      ],
      "name": "OwnershipTransferred",
      "type": "event"
    },
    {
      "inputs": [],
      "name": "renounceOwnership",
      "outputs": [],
      "stateMutability": "nonpayable",
      "type": "function"
    },
    {
      "inputs": [
        {
          "internalType": "address",
          "name": "from",
          "type": "address"
        },
        {
          "internalType": "address",
          "name": "to",
          "type": "address"
        },
        {
          "internalType": "uint256",
          "name": "tokenId",
          "type": "uint256"
        }
      ],
      "name": "safeTransferFrom",
      "outputs": [],
      "stateMutability": "nonpayable",
      "type": "function"
    },
    {
      "inputs": [
        {
          "internalType": "address",
          "name": "from",
          "type": "address"
        },
        {
          "internalType": "address",
          "name": "to",
          "type": "address"
        },
        {
          "internalType": "uint256",
          "name": "tokenId",
          "type": "uint256"
        },
        {
          "internalType": "bytes",
          "name": "_data",
          "type": "bytes"
        }
      ],
      "name": "safeTransferFrom",
      "outputs": [],
      "stateMutability": "nonpayable",
      "type": "function"
    },
    {
      "inputs": [
        {
          "internalType": "address",
          "name": "_addr",
          "type": "address"
        }
      ],
      "name": "setADMCAddress",
      "outputs": [],
      "stateMutability": "nonpayable",
      "type": "function"
    },
    {
      "inputs": [
        {
          "internalType": "address",
          "name": "operator",
          "type": "address"
        },
        {
          "internalType": "bool",
          "name": "approved",
          "type": "bool"
        }
      ],
      "name": "setApprovalForAll",
      "outputs": [],
      "stateMutability": "nonpayable",
      "type": "function"
    },
    {
      "inputs": [
        {
          "internalType": "uint256",
          "name": "_price",
          "type": "uint256"
        }
      ],
      "name": "setListPrice",
      "outputs": [],
      "stateMutability": "nonpayable",
      "type": "function"
    },
    {
      "inputs": [
        {
          "internalType": "uint256",
          "name": "mintingPrice",
          "type": "uint256"
        }
      ],
      "name": "setMintingPrice",
      "outputs": [],
      "stateMutability": "nonpayable",
      "type": "function"
    },
    {
      "anonymous": false,
      "inputs": [
        {
          "indexed": true,
          "internalType": "address",
          "name": "owner",
          "type": "address"
        },
        {
          "indexed": true,
          "internalType": "address",
          "name": "buyer",
          "type": "address"
        },
        {
          "indexed": false,
          "internalType": "uint256",
          "name": "collection",
          "type": "uint256"
        },
        {
          "indexed": false,
          "internalType": "uint256",
          "name": "tokenId",
          "type": "uint256"
        },
        {
          "indexed": false,
          "internalType": "uint256",
          "name": "price",
          "type": "uint256"
        }
      ],
      "name": "Sold",
      "type": "event"
    },
    {
      "anonymous": false,
      "inputs": [
        {
          "indexed": true,
          "internalType": "address",
          "name": "from",
          "type": "address"
        },
        {
          "indexed": true,
          "internalType": "address",
          "name": "to",
          "type": "address"
        },
        {
          "indexed": true,
          "internalType": "uint256",
          "name": "tokenId",
          "type": "uint256"
        }
      ],
      "name": "Transfer",
      "type": "event"
    },
    {
      "inputs": [
        {
          "internalType": "address",
          "name": "from",
          "type": "address"
        },
        {
          "internalType": "address",
          "name": "to",
          "type": "address"
        },
        {
          "internalType": "uint256",
          "name": "tokenId",
          "type": "uint256"
        }
      ],
      "name": "transferFrom",
      "outputs": [],
      "stateMutability": "nonpayable",
      "type": "function"
    },
    {
      "inputs": [
        {
          "internalType": "address",
          "name": "newOwner",
          "type": "address"
        }
      ],
      "name": "transferOwnership",
      "outputs": [],
      "stateMutability": "nonpayable",
      "type": "function"
    },
    {
      "anonymous": false,
      "inputs": [
        {
          "indexed": true,
          "internalType": "address",
          "name": "owner",
          "type": "address"
        },
        {
          "indexed": true,
          "internalType": "address",
          "name": "receiver",
          "type": "address"
        },
        {
          "indexed": false,
          "internalType": "uint256",
          "name": "tokenId",
          "type": "uint256"
        },
        {
          "indexed": false,
          "internalType": "uint256",
          "name": "collectionId",
          "type": "uint256"
        }
      ],
      "name": "TransferToken",
      "type": "event"
    },
    {
      "inputs": [
        {
          "internalType": "address",
          "name": "owner",
          "type": "address"
        }
      ],
      "name": "balanceOf",
      "outputs": [
        {
          "internalType": "uint256",
          "name": "",
          "type": "uint256"
        }
      ],
      "stateMutability": "view",
      "type": "function"
    },
    {
      "inputs": [],
      "name": "fetchCollections",
      "outputs": [
        {
          "components": [
            {
              "internalType": "uint256",
              "name": "id",
              "type": "uint256"
            },
            {
              "internalType": "string",
              "name": "name",
              "type": "string"
            },
            {
              "internalType": "string",
              "name": "collectionUri",
              "type": "string"
            },
            {
              "internalType": "uint256",
              "name": "totalMints",
              "type": "uint256"
            },
            {
              "internalType": "uint256",
              "name": "limits",
              "type": "uint256"
            },
            {
              "internalType": "uint256",
              "name": "price",
              "type": "uint256"
            }
          ],
          "internalType": "struct NFT.CollectionInfo[]",
          "name": "",
          "type": "tuple[]"
        }
      ],
      "stateMutability": "view",
      "type": "function"
    },
    {
      "inputs": [
        {
          "internalType": "uint256",
          "name": "_collectionId",
          "type": "uint256"
        }
      ],
      "name": "fetchMyListedNFTs",
      "outputs": [
        {
          "components": [
            {
              "internalType": "uint256",
              "name": "tokenId",
              "type": "uint256"
            },
            {
              "internalType": "address",
              "name": "owner",
              "type": "address"
            },
            {
              "internalType": "uint256",
              "name": "price",
              "type": "uint256"
            }
          ],
          "internalType": "struct NFT.ListedToken[]",
          "name": "",
          "type": "tuple[]"
        }
      ],
      "stateMutability": "view",
      "type": "function"
    },
    {
      "inputs": [
        {
          "internalType": "uint256",
          "name": "_collectionId",
          "type": "uint256"
        }
      ],
      "name": "fetchMyNFTS",
      "outputs": [
        {
          "components": [
            {
              "internalType": "uint256",
              "name": "tokenId",
              "type": "uint256"
            }
          ],
          "internalType": "struct NFT.TokenInfo[]",
          "name": "",
          "type": "tuple[]"
        }
      ],
      "stateMutability": "view",
      "type": "function"
    },
    {
      "inputs": [
        {
          "internalType": "uint256",
          "name": "tokenId",
          "type": "uint256"
        }
      ],
      "name": "getApproved",
      "outputs": [
        {
          "internalType": "address",
          "name": "",
          "type": "address"
        }
      ],
      "stateMutability": "view",
      "type": "function"
    },
    {
      "inputs": [
        {
          "internalType": "uint256",
          "name": "collectionId",
          "type": "uint256"
        }
      ],
      "name": "getCollectionInfoByCid",
      "outputs": [
        {
          "components": [
            {
              "internalType": "uint256",
              "name": "id",
              "type": "uint256"
            },
            {
              "internalType": "string",
              "name": "name",
              "type": "string"
            },
            {
              "internalType": "string",
              "name": "collectionUri",
              "type": "string"
            },
            {
              "internalType": "uint256",
              "name": "totalMints",
              "type": "uint256"
            },
            {
              "internalType": "uint256",
              "name": "limits",
              "type": "uint256"
            },
            {
              "internalType": "uint256",
              "name": "price",
              "type": "uint256"
            }
          ],
          "internalType": "struct NFT.CollectionInfo",
          "name": "",
          "type": "tuple"
        }
      ],
      "stateMutability": "view",
      "type": "function"
    },
    {
      "inputs": [
        {
          "internalType": "uint256",
          "name": "_collectionId",
          "type": "uint256"
        }
      ],
      "name": "getCollectionTokenCount",
      "outputs": [
        {
          "internalType": "uint256",
          "name": "",
          "type": "uint256"
        }
      ],
      "stateMutability": "view",
      "type": "function"
    },
    {
      "inputs": [],
      "name": "getCurrentCollectionId",
      "outputs": [
        {
          "internalType": "uint256",
          "name": "",
          "type": "uint256"
        }
      ],
      "stateMutability": "view",
      "type": "function"
    },
    {
      "inputs": [],
      "name": "getCurrentTokenId",
      "outputs": [
        {
          "internalType": "uint256",
          "name": "",
          "type": "uint256"
        }
      ],
      "stateMutability": "view",
      "type": "function"
    },
    {
      "inputs": [
        {
          "internalType": "uint256",
          "name": "_collectionId",
          "type": "uint256"
        }
      ],
      "name": "getListedNFTs",
      "outputs": [
        {
          "components": [
            {
              "internalType": "uint256",
              "name": "tokenId",
              "type": "uint256"
            },
            {
              "internalType": "address",
              "name": "owner",
              "type": "address"
            },
            {
              "internalType": "uint256",
              "name": "price",
              "type": "uint256"
            }
          ],
          "internalType": "struct NFT.ListedToken[]",
          "name": "",
          "type": "tuple[]"
        }
      ],
      "stateMutability": "view",
      "type": "function"
    },
    {
      "inputs": [],
      "name": "getListPrice",
      "outputs": [
        {
          "internalType": "uint256",
          "name": "",
          "type": "uint256"
        }
      ],
      "stateMutability": "view",
      "type": "function"
    },
    {
      "inputs": [],
      "name": "getMintingPrice",
      "outputs": [
        {
          "internalType": "uint256",
          "name": "",
          "type": "uint256"
        }
      ],
      "stateMutability": "view",
      "type": "function"
    },
    {
      "inputs": [],
      "name": "getOwner",
      "outputs": [
        {
          "internalType": "address",
          "name": "",
          "type": "address"
        }
      ],
      "stateMutability": "view",
      "type": "function"
    },
    {
      "inputs": [
        {
          "internalType": "uint256",
          "name": "collectionId",
          "type": "uint256"
        }
      ],
      "name": "getOwnerTokenCountForCollection",
      "outputs": [
        {
          "internalType": "uint256",
          "name": "",
          "type": "uint256"
        }
      ],
      "stateMutability": "view",
      "type": "function"
    },
    {
      "inputs": [],
      "name": "getPayableCoin",
      "outputs": [
        {
          "internalType": "address",
          "name": "",
          "type": "address"
        }
      ],
      "stateMutability": "view",
      "type": "function"
    },
    {
      "inputs": [
        {
          "internalType": "uint256",
          "name": "tokenId",
          "type": "uint256"
        }
      ],
      "name": "getURI",
      "outputs": [
        {
          "internalType": "string",
          "name": "",
          "type": "string"
        }
      ],
      "stateMutability": "view",
      "type": "function"
    },
    {
      "inputs": [
        {
          "internalType": "address",
          "name": "owner",
          "type": "address"
        },
        {
          "internalType": "address",
          "name": "operator",
          "type": "address"
        }
      ],
      "name": "isApprovedForAll",
      "outputs": [
        {
          "internalType": "bool",
          "name": "",
          "type": "bool"
        }
      ],
      "stateMutability": "view",
      "type": "function"
    },
    {
      "inputs": [],
      "name": "m_admcAddress",
      "outputs": [
        {
          "internalType": "address",
          "name": "",
          "type": "address"
        }
      ],
      "stateMutability": "view",
      "type": "function"
    },
    {
      "inputs": [
        {
          "internalType": "uint256",
          "name": "",
          "type": "uint256"
        },
        {
          "internalType": "uint256",
          "name": "",
          "type": "uint256"
        }
      ],
      "name": "m_mapMarketItem",
      "outputs": [
        {
          "internalType": "uint256",
          "name": "tokenId",
          "type": "uint256"
        },
        {
          "internalType": "address",
          "name": "owner",
          "type": "address"
        },
        {
          "internalType": "uint256",
          "name": "price",
          "type": "uint256"
        }
      ],
      "stateMutability": "view",
      "type": "function"
    },
    {
      "inputs": [
        {
          "internalType": "address",
          "name": "",
          "type": "address"
        },
        {
          "internalType": "uint256",
          "name": "",
          "type": "uint256"
        },
        {
          "internalType": "uint256",
          "name": "",
          "type": "uint256"
        }
      ],
      "name": "m_mapOwnerTokens",
      "outputs": [
        {
          "internalType": "uint256",
          "name": "tokenId",
          "type": "uint256"
        }
      ],
      "stateMutability": "view",
      "type": "function"
    },
    {
      "inputs": [
        {
          "internalType": "uint256",
          "name": "",
          "type": "uint256"
        }
      ],
      "name": "m_nCollectionTokens",
      "outputs": [
        {
          "internalType": "uint256",
          "name": "",
          "type": "uint256"
        }
      ],
      "stateMutability": "view",
      "type": "function"
    },
    {
      "inputs": [],
      "name": "name",
      "outputs": [
        {
          "internalType": "string",
          "name": "",
          "type": "string"
        }
      ],
      "stateMutability": "view",
      "type": "function"
    },
    {
      "inputs": [],
      "name": "owner",
      "outputs": [
        {
          "internalType": "address",
          "name": "",
          "type": "address"
        }
      ],
      "stateMutability": "view",
      "type": "function"
    },
    {
      "inputs": [
        {
          "internalType": "uint256",
          "name": "tokenId",
          "type": "uint256"
        }
      ],
      "name": "ownerOf",
      "outputs": [
        {
          "internalType": "address",
          "name": "",
          "type": "address"
        }
      ],
      "stateMutability": "view",
      "type": "function"
    },
    {
      "inputs": [
        {
          "internalType": "uint256",
          "name": "_tokenId",
          "type": "uint256"
        }
      ],
      "name": "ownerOfToken",
      "outputs": [
        {
          "internalType": "address",
          "name": "",
          "type": "address"
        }
      ],
      "stateMutability": "view",
      "type": "function"
    },
    {
      "inputs": [
        {
          "internalType": "bytes4",
          "name": "interfaceId",
          "type": "bytes4"
        }
      ],
      "name": "supportsInterface",
      "outputs": [
        {
          "internalType": "bool",
          "name": "",
          "type": "bool"
        }
      ],
      "stateMutability": "view",
      "type": "function"
    },
    {
      "inputs": [],
      "name": "symbol",
      "outputs": [
        {
          "internalType": "string",
          "name": "",
          "type": "string"
        }
      ],
      "stateMutability": "view",
      "type": "function"
    },
    {
      "inputs": [
        {
          "internalType": "uint256",
          "name": "tokenId",
          "type": "uint256"
        }
      ],
      "name": "tokenURI",
      "outputs": [
        {
          "internalType": "string",
          "name": "",
          "type": "string"
        }
      ],
      "stateMutability": "view",
      "type": "function"
    }
  ],
  "bytecode": "0x6080604052655af3107a4000600955600a80546001600160a01b031916738ccb7d516ccd62312b2d7753b1421ed3862ff80b1790553480156200004157600080fd5b5060405162002e0738038062002e078339810160408190526200006491620001ae565b604080518082018252601181527020b230b6b0b73a1021b430b930b1ba32b960791b60208083019182528351808501909452600584526441444d434360d81b908401528151919291620000ba9160009162000108565b508051620000d090600190602084019062000108565b5050600c8054336001600160a01b031991821617909155600b80549091166001600160a01b039390931692909217909155506200021b565b8280546200011690620001de565b90600052602060002090601f0160209004810192826200013a576000855562000185565b82601f106200015557805160ff191683800117855562000185565b8280016001018555821562000185579182015b828111156200018557825182559160200191906001019062000168565b506200019392915062000197565b5090565b5b8082111562000193576000815560010162000198565b600060208284031215620001c0578081fd5b81516001600160a01b0381168114620001d7578182fd5b9392505050565b600281046001821680620001f357607f821691505b602082108114156200021557634e487b7160e01b600052602260045260246000fd5b50919050565b612bdc806200022b6000396000f3fe608060405234801561001057600080fd5b50600436106101da5760003560e01c806371e8069c11610104578063a6d7135a116100a2578063c87b56dd11610071578063c87b56dd146103d9578063d2ead4cb146103ec578063e985e9c514610401578063fa80f7ee14610414576101da565b8063a6d7135a1461038d578063b88d4fde146103a0578063c43aecd1146103b3578063c634d032146103c6576101da565b8063893d20e8116100de578063893d20e8146103625780638be39fe91461036a57806395d89b4114610372578063a22cb4651461037a576101da565b806371e8069c1461033457806377d24762146103475780638417b47f1461034f576101da565b8063280aada71161017c578063561892361161014b57806356189236146102e65780636352211e146102ee57806366ef56391461030157806370a0823114610321576101da565b8063280aada71461028b5780632d8c97b414610293578063315b3f5f146102b357806342842e0e146102d3576101da565b8063081812fc116101b8578063081812fc14610230578063095ea7b3146102505780631aa347dc1461026557806323b872dd14610278576101da565b80630178327c146101df57806301ffc9a71461020857806306fdde031461021b575b600080fd5b6101f26101ed366004612153565b61041c565b6040516101ff919061239f565b60405180910390f35b6101f261021636600461209f565b61045e565b6102236104a4565b6040516101ff91906123aa565b61024361023e366004612153565b610536565b6040516101ff9190612241565b61026361025e36600461205a565b610582565b005b610223610273366004612153565b61061a565b610263610286366004611f70565b610625565b61024361065d565b6102a66102a1366004612153565b61066c565b6040516101ff9190612a3c565b6102c66102c1366004612153565b610689565b6040516101ff9190612330565b6102636102e1366004611f70565b610858565b6102a6610873565b6102436102fc366004612153565b610884565b61031461030f366004612153565b6108b9565b6040516101ff9190612a29565b6102a661032f366004611f24565b610a3c565b610263610342366004612153565b610a80565b6102a6610ad8565b61026361035d366004612153565b610ade565b610243610b54565b6102a6610b63565b610223610b6f565b610263610388366004612024565b610b7e565b61031461039b366004612153565b610c4c565b6102636103ae366004611fab565b610dc5565b6102636103c13660046120d7565b610e04565b6102a66103d4366004612153565b610f42565b6102236103e7366004612153565b61135f565b6103f4611480565b6040516101ff91906122d0565b6101f261040f366004611f3e565b6116b9565b6102436116e7565b60008060015b61042c60076116f6565b811161045557838114156104435760019150610455565b8061044d81612b0e565b915050610422565b5090505b919050565b60006001600160e01b031982166380ac58cd60e01b148061048f57506001600160e01b03198216635b5e139f60e01b145b8061049e575061049e826116fa565b92915050565b6060600080546104b390612ad3565b80601f01602080910402602001604051908101604052809291908181526020018280546104df90612ad3565b801561052c5780601f106105015761010080835404028352916020019161052c565b820191906000526020600020905b81548152906001019060200180831161050f57829003601f168201915b5050505050905090565b600061054182611713565b6105665760405162461bcd60e51b815260040161055d90612836565b60405180910390fd5b506000908152600460205260409020546001600160a01b031690565b600061058d82610884565b9050806001600160a01b0316836001600160a01b031614156105c15760405162461bcd60e51b815260040161055d90612947565b806001600160a01b03166105d3611730565b6001600160a01b031614806105ef57506105ef8161040f611730565b61060b5760405162461bcd60e51b815260040161055d90612672565b6106158383611734565b505050565b606061049e8261135f565b610636610630611730565b826117a2565b6106525760405162461bcd60e51b815260040161055d90612988565b61061583838361181f565b600a546001600160a01b031690565b336000908152601060209081526040808320938352929052205490565b6060600060015b61069a60076116f6565b81116106fb576000818152600f6020526040902060020154600160a01b900460ff161580156106d657506000818152600f602052604090205484145b156106e957816106e581612b0e565b9250505b806106f381612b0e565b915050610690565b506000808267ffffffffffffffff81111561072657634e487b7160e01b600052604160045260246000fd5b60405190808252806020026020018201604052801561075f57816020015b61074c611d7c565b8152602001906001900390816107445790505b50905060015b61076f60076116f6565b811161084f576000818152600f6020526040902060020154600160a01b900460ff161580156107ab57506000818152600f602052604090205486145b1561083d576000818152600f6020908152604091829020825160808101845281548152600182015492810192909252600201546001600160a01b03811692820192909252600160a01b90910460ff1615156060820152825183908590811061082357634e487b7160e01b600052603260045260246000fd5b6020026020010181905250828061083990612b0e565b9350505b8061084781612b0e565b915050610765565b50949350505050565b61061583838360405180602001604052806000815250610dc5565b600061087f60076116f6565b905090565b6000818152600260205260408120546001600160a01b03168061049e5760405162461bcd60e51b815260040161055d90612719565b6108c1611daf565b6000828152600e6020908152604080832054808452600d835292819020815160c0810190925280548252600181018054929391929184019161090290612ad3565b80601f016020809104026020016040519081016040528092919081815260200182805461092e90612ad3565b801561097b5780601f106109505761010080835404028352916020019161097b565b820191906000526020600020905b81548152906001019060200180831161095e57829003601f168201915b5050505050815260200160028201805461099490612ad3565b80601f01602080910402602001604051908101604052809291908181526020018280546109c090612ad3565b8015610a0d5780601f106109e257610100808354040283529160200191610a0d565b820191906000526020600020905b8154815290600101906020018083116109f057829003601f168201915b505050505081526020016003820154815260200160048201548152602001600582015481525050915050919050565b60006001600160a01b038216610a645760405162461bcd60e51b815260040161055d906126cf565b506001600160a01b031660009081526003602052604090205490565b60015b610a8d60076116f6565b8111610ad45781811415610ac2576000818152600f60205260409020600201805460ff60a01b1916600160a01b179055610ad4565b80610acc81612b0e565b915050610a83565b5050565b60095490565b600c546001600160a01b03163314610b085760405162461bcd60e51b815260040161055d9061291a565b610b1681633b9aca00612a71565b6009556040517fc1964616a7065e86f052b90db1a318ac253fc8e701b705f4eca06c0af34047e590610b49908390612a3c565b60405180910390a150565b600c546001600160a01b031690565b600061087f60086116f6565b6060600180546104b390612ad3565b610b86611730565b6001600160a01b0316826001600160a01b03161415610bb75760405162461bcd60e51b815260040161055d906125a8565b8060056000610bc4611730565b6001600160a01b03908116825260208083019390935260409182016000908120918716808252919093529120805460ff191692151592909217909155610c08611730565b6001600160a01b03167f17307eab39ab6107e8899845ad3d59bd9653f200f220920489ca2b5937696c3183604051610c40919061239f565b60405180910390a35050565b610c54611daf565b600d60008381526020019081526020016000206040518060c001604052908160008201548152602001600182018054610c8c90612ad3565b80601f0160208091040260200160405190810160405280929190818152602001828054610cb890612ad3565b8015610d055780601f10610cda57610100808354040283529160200191610d05565b820191906000526020600020905b815481529060010190602001808311610ce857829003601f168201915b50505050508152602001600282018054610d1e90612ad3565b80601f0160208091040260200160405190810160405280929190818152602001828054610d4a90612ad3565b8015610d975780601f10610d6c57610100808354040283529160200191610d97565b820191906000526020600020905b815481529060010190602001808311610d7a57829003601f168201915b5050505050815260200160038201548152602001600482015481526020016005820154815250509050919050565b610dd6610dd0611730565b836117a2565b610df25760405162461bcd60e51b815260040161055d90612988565b610dfe8484848461194c565b50505050565b600c546001600160a01b03163314610e2e5760405162461bcd60e51b815260040161055d9061291a565b610e38600861197f565b6000610e4460086116f6565b90506040518060c0016040528082815260200187815260200186815260200185815260200184815260200183633b9aca00610e7f9190612a71565b90526000828152600d60209081526040909120825181558282015180519192610eb092600185019290910190611de5565b5060408201518051610ecc916002840191602090910190611de5565b50606082015160038201556080820151600482015560a090910151600590910155807feada35d938c270c25853d8dabedd0244753eb3db592834c69dd585067b028d3f87878787610f2188633b9aca00612a71565b604051610f329594939291906123bd565b60405180910390a2505050505050565b600a546000828152600d6020526040808220600501549051636eb1769f60e11b815291926001600160a01b0316918390839063dd62ed3e90610f8a9033903090600401612255565b60206040518083038186803b158015610fa257600080fd5b505afa158015610fb6573d6000803e3d6000fd5b505050506040513d601f19601f82011682018060405250810190610fda919061216b565b905081811015610ffc5760405162461bcd60e51b815260040161055d90612400565b6040516370a0823160e01b815282906001600160a01b038516906370a082319061102a903390600401612241565b60206040518083038186803b15801561104257600080fd5b505afa158015611056573d6000803e3d6000fd5b505050506040513d601f19601f8201168201806040525081019061107a919061216b565b10156110985760405162461bcd60e51b815260040161055d906129d9565b6110a260086116f6565b8511156110c15760405162461bcd60e51b815260040161055d9061252d565b6000858152600d60205260409020600301546110dd60076116f6565b106110fa5760405162461bcd60e51b815260040161055d90612450565b6000858152600d6020908152604080832060040154338452601083528184208985529092529091205411156111415760405162461bcd60e51b815260040161055d906125df565b61114b600761197f565b600061115760076116f6565b90506111633382611988565b6000868152600d60205260409020600201805461120891839161118590612ad3565b80601f01602080910402602001604051908101604052809291908181526020018280546111b190612ad3565b80156111fe5780601f106111d3576101008083540402835291602001916111fe565b820191906000526020600020905b8154815290600101906020018083116111e157829003601f168201915b5050505050611a67565b600b5461121f906001600160a01b03166001610b7e565b60408051608081018252878152602080820184815233838501818152600060608601818152888252600f865287822096518755935160018781019190915591516002909601805494511515600160a01b0260ff60a01b196001600160a01b03989098166001600160a01b0319909616959095179690961693909317909455600e83528482208b90558152601082528381208a82529091529182208054919290916112ca908490612a45565b9091555050600c546040516323b872dd60e01b81526001600160a01b03808716926323b872dd926113039233921690889060040161226f565b602060405180830381600087803b15801561131d57600080fd5b505af1158015611331573d6000803e3d6000fd5b505050506040513d601f19601f820116820180604052508101906113559190612083565b5095945050505050565b606061136a82611713565b6113865760405162461bcd60e51b815260040161055d906127e5565b6000828152600660205260408120805461139f90612ad3565b80601f01602080910402602001604051908101604052809291908181526020018280546113cb90612ad3565b80156114185780601f106113ed57610100808354040283529160200191611418565b820191906000526020600020905b8154815290600101906020018083116113fb57829003601f168201915b505050505090506000611429611aab565b905080516000141561143d57509050610459565b81511561146f578082604051602001611457929190612212565b60405160208183030381529060405292505050610459565b61147884611abd565b949350505050565b6060600061148e60086116f6565b905060008167ffffffffffffffff8111156114b957634e487b7160e01b600052604160045260246000fd5b6040519080825280602002602001820160405280156114f257816020015b6114df611daf565b8152602001906001900390816114d75790505b50905060015b8281116116b257600d60008281526020019081526020016000206040518060c00160405290816000820154815260200160018201805461153790612ad3565b80601f016020809104026020016040519081016040528092919081815260200182805461156390612ad3565b80156115b05780601f10611585576101008083540402835291602001916115b0565b820191906000526020600020905b81548152906001019060200180831161159357829003601f168201915b505050505081526020016002820180546115c990612ad3565b80601f01602080910402602001604051908101604052809291908181526020018280546115f590612ad3565b80156116425780601f1061161757610100808354040283529160200191611642565b820191906000526020600020905b81548152906001019060200180831161162557829003601f168201915b5050509183525050600382015460208201526004820154604082015260059091015460609091015282611676600184612a90565b8151811061169457634e487b7160e01b600052603260045260246000fd5b602002602001018190525080806116aa90612b0e565b9150506114f8565b5091505090565b6001600160a01b03918216600090815260056020908152604080832093909416825291909152205460ff1690565b600a546001600160a01b031681565b5490565b6001600160e01b031981166301ffc9a760e01b14919050565b6000908152600260205260409020546001600160a01b0316151590565b3390565b600081815260046020526040902080546001600160a01b0319166001600160a01b038416908117909155819061176982610884565b6001600160a01b03167f8c5be1e5ebec7d5bd14f71427d1e84f3dd0314c0f7b2291e5b200ac8c7c3b92560405160405180910390a45050565b60006117ad82611713565b6117c95760405162461bcd60e51b815260040161055d90612626565b60006117d483610884565b9050806001600160a01b0316846001600160a01b0316148061180f5750836001600160a01b031661180484610536565b6001600160a01b0316145b80611478575061147881856116b9565b826001600160a01b031661183282610884565b6001600160a01b0316146118585760405162461bcd60e51b815260040161055d90612882565b6001600160a01b03821661187e5760405162461bcd60e51b815260040161055d90612564565b611889838383610615565b611894600082611734565b6001600160a01b03831660009081526003602052604081208054600192906118bd908490612a90565b90915550506001600160a01b03821660009081526003602052604081208054600192906118eb908490612a45565b909155505060008181526002602052604080822080546001600160a01b0319166001600160a01b0386811691821790925591518493918716917fddf252ad1be2c89b69c2b068fc378daa952ba7f163c4a11628f55a4df523b3ef91a4505050565b61195784848461181f565b61196384848484611b40565b610dfe5760405162461bcd60e51b815260040161055d906124a4565b80546001019055565b6001600160a01b0382166119ae5760405162461bcd60e51b815260040161055d906127b0565b6119b781611713565b156119d45760405162461bcd60e51b815260040161055d906124f6565b6119e060008383610615565b6001600160a01b0382166000908152600360205260408120805460019290611a09908490612a45565b909155505060008181526002602052604080822080546001600160a01b0319166001600160a01b03861690811790915590518392907fddf252ad1be2c89b69c2b068fc378daa952ba7f163c4a11628f55a4df523b3ef908290a45050565b611a7082611713565b611a8c5760405162461bcd60e51b815260040161055d90612762565b6000828152600660209081526040909120825161061592840190611de5565b60408051602081019091526000815290565b6060611ac882611713565b611ae45760405162461bcd60e51b815260040161055d906128cb565b6000611aee611aab565b90506000815111611b0e5760405180602001604052806000815250611b39565b80611b1884611c5b565b604051602001611b29929190612212565b6040516020818303038152906040525b9392505050565b6000611b54846001600160a01b0316611d76565b15611c5057836001600160a01b031663150b7a02611b70611730565b8786866040518563ffffffff1660e01b8152600401611b929493929190612293565b602060405180830381600087803b158015611bac57600080fd5b505af1925050508015611bdc575060408051601f3d908101601f19168201909252611bd9918101906120bb565b60015b611c36573d808015611c0a576040519150601f19603f3d011682016040523d82523d6000602084013e611c0f565b606091505b508051611c2e5760405162461bcd60e51b815260040161055d906124a4565b805181602001fd5b6001600160e01b031916630a85bd0160e11b149050611478565b506001949350505050565b606081611c8057506040805180820190915260018152600360fc1b6020820152610459565b8160005b8115611caa5780611c9481612b0e565b9150611ca39050600a83612a5d565b9150611c84565b60008167ffffffffffffffff811115611cd357634e487b7160e01b600052604160045260246000fd5b6040519080825280601f01601f191660200182016040528015611cfd576020820181803683370190505b5090505b841561147857611d12600183612a90565b9150611d1f600a86612b29565b611d2a906030612a45565b60f81b818381518110611d4d57634e487b7160e01b600052603260045260246000fd5b60200101906001600160f81b031916908160001a905350611d6f600a86612a5d565b9450611d01565b3b151590565b6040518060800160405280600081526020016000815260200160006001600160a01b031681526020016000151581525090565b6040518060c001604052806000815260200160608152602001606081526020016000815260200160008152602001600081525090565b828054611df190612ad3565b90600052602060002090601f016020900481019282611e135760008555611e59565b82601f10611e2c57805160ff1916838001178555611e59565b82800160010185558215611e59579182015b82811115611e59578251825591602001919060010190611e3e565b50611e65929150611e69565b5090565b5b80821115611e655760008155600101611e6a565b600067ffffffffffffffff80841115611e9957611e99612b69565b604051601f8501601f191681016020018281118282101715611ebd57611ebd612b69565b604052848152915081838501861015611ed557600080fd5b8484602083013760006020868301015250509392505050565b80356001600160a01b038116811461045957600080fd5b600082601f830112611f15578081fd5b611b3983833560208501611e7e565b600060208284031215611f35578081fd5b611b3982611eee565b60008060408385031215611f50578081fd5b611f5983611eee565b9150611f6760208401611eee565b90509250929050565b600080600060608486031215611f84578081fd5b611f8d84611eee565b9250611f9b60208501611eee565b9150604084013590509250925092565b60008060008060808587031215611fc0578081fd5b611fc985611eee565b9350611fd760208601611eee565b925060408501359150606085013567ffffffffffffffff811115611ff9578182fd5b8501601f81018713612009578182fd5b61201887823560208401611e7e565b91505092959194509250565b60008060408385031215612036578182fd5b61203f83611eee565b9150602083013561204f81612b7f565b809150509250929050565b6000806040838503121561206c578182fd5b61207583611eee565b946020939093013593505050565b600060208284031215612094578081fd5b8151611b3981612b7f565b6000602082840312156120b0578081fd5b8135611b3981612b90565b6000602082840312156120cc578081fd5b8151611b3981612b90565b600080600080600060a086880312156120ee578081fd5b853567ffffffffffffffff80821115612105578283fd5b61211189838a01611f05565b96506020880135915080821115612126578283fd5b5061213388828901611f05565b959895975050505060408401359360608101359360809091013592509050565b600060208284031215612164578081fd5b5035919050565b60006020828403121561217c578081fd5b5051919050565b6000815180845261219b816020860160208601612aa7565b601f01601f19169290920160200192915050565b600081518352602082015160c060208501526121ce60c0850182612183565b9050604083015184820360408601526121e78282612183565b915050606083015160608501526080830151608085015260a083015160a08501528091505092915050565b60008351612224818460208801612aa7565b835190830190612238818360208801612aa7565b01949350505050565b6001600160a01b0391909116815260200190565b6001600160a01b0392831681529116602082015260400190565b6001600160a01b039384168152919092166020820152604081019190915260600190565b6001600160a01b03858116825284166020820152604081018390526080606082018190526000906122c690830184612183565b9695505050505050565b6000602080830181845280855180835260408601915060408482028701019250838701855b8281101561232357603f198886030184526123118583516121af565b945092850192908501906001016122f5565b5092979650505050505050565b602080825282518282018190526000919060409081850190868401855b82811015612392578151805185528681015187860152858101516001600160a01b0316868601526060908101511515908501526080909301929085019060010161234d565b5091979650505050505050565b901515815260200190565b600060208252611b396020830184612183565b600060a082526123d060a0830188612183565b82810360208401526123e28188612183565b60408401969096525050606081019290925260809091015292915050565b60208082526030908201527f6d696e74696e672070726963652069732074686520736d616c6c65722074686160408201526f1b88185b1b1bddd95908185b5bdd5b9d60821b606082015260800190565b60208082526034908201527f63757272656e74206d696e74696e6720636f756e74206f766572666c6f7773206040820152733a37ba30b61036b4b73a34b7339031b7bab73a1760611b606082015260800190565b60208082526032908201527f4552433732313a207472616e7366657220746f206e6f6e20455243373231526560408201527131b2b4bb32b91034b6b83632b6b2b73a32b960711b606082015260800190565b6020808252601c908201527f4552433732313a20746f6b656e20616c7265616479206d696e74656400000000604082015260600190565b6020808252601c908201527f54686520636f6c6c656374696f6e206964206e6f206578697374732e00000000604082015260600190565b60208082526024908201527f4552433732313a207472616e7366657220746f20746865207a65726f206164646040820152637265737360e01b606082015260800190565b60208082526019908201527f4552433732313a20617070726f766520746f2063616c6c657200000000000000604082015260600190565b60208082526027908201527f457863656564656420746865206c696d69746564206e756d626572206f66206d60408201526634b73a34b7339760c91b606082015260800190565b6020808252602c908201527f4552433732313a206f70657261746f7220717565727920666f72206e6f6e657860408201526b34b9ba32b73a103a37b5b2b760a11b606082015260800190565b60208082526038908201527f4552433732313a20617070726f76652063616c6c6572206973206e6f74206f7760408201527f6e6572206e6f7220617070726f76656420666f7220616c6c0000000000000000606082015260800190565b6020808252602a908201527f4552433732313a2062616c616e636520717565727920666f7220746865207a65604082015269726f206164647265737360b01b606082015260800190565b60208082526029908201527f4552433732313a206f776e657220717565727920666f72206e6f6e657869737460408201526832b73a103a37b5b2b760b91b606082015260800190565b6020808252602e908201527f45524337323155524953746f726167653a2055524920736574206f66206e6f6e60408201526d32bc34b9ba32b73a103a37b5b2b760911b606082015260800190565b6020808252818101527f4552433732313a206d696e7420746f20746865207a65726f2061646472657373604082015260600190565b60208082526031908201527f45524337323155524953746f726167653a2055524920717565727920666f72206040820152703737b732bc34b9ba32b73a103a37b5b2b760791b606082015260800190565b6020808252602c908201527f4552433732313a20617070726f76656420717565727920666f72206e6f6e657860408201526b34b9ba32b73a103a37b5b2b760a11b606082015260800190565b60208082526029908201527f4552433732313a207472616e73666572206f6620746f6b656e2074686174206960408201526839903737ba1037bbb760b91b606082015260800190565b6020808252602f908201527f4552433732314d657461646174613a2055524920717565727920666f72206e6f60408201526e3732bc34b9ba32b73a103a37b5b2b760891b606082015260800190565b602080825260139082015272556e617574686f72697365642041636365737360681b604082015260600190565b60208082526021908201527f4552433732313a20617070726f76616c20746f2063757272656e74206f776e656040820152603960f91b606082015260800190565b60208082526031908201527f4552433732313a207472616e736665722063616c6c6572206973206e6f74206f6040820152701ddb995c881b9bdc88185c1c1c9bdd9959607a1b606082015260800190565b60208082526030908201527f62616c616e636520697320746f6f20736d616c6c2c20796f752063616e27742060408201526f3830bc903337b91036b4b73a34b7339760811b606082015260800190565b600060208252611b3960208301846121af565b90815260200190565b60008219821115612a5857612a58612b3d565b500190565b600082612a6c57612a6c612b53565b500490565b6000816000190483118215151615612a8b57612a8b612b3d565b500290565b600082821015612aa257612aa2612b3d565b500390565b60005b83811015612ac2578181015183820152602001612aaa565b83811115610dfe5750506000910152565b600281046001821680612ae757607f821691505b60208210811415612b0857634e487b7160e01b600052602260045260246000fd5b50919050565b6000600019821415612b2257612b22612b3d565b5060010190565b600082612b3857612b38612b53565b500690565b634e487b7160e01b600052601160045260246000fd5b634e487b7160e01b600052601260045260246000fd5b634e487b7160e01b600052604160045260246000fd5b8015158114612b8d57600080fd5b50565b6001600160e01b031981168114612b8d57600080fdfea26469706673582212209de0cedcbe88a957363c8817403b321126930356ab821921f84db8db1b53380b64736f6c63430008000033",
  "linkReferences": {},
  "deployedLinkReferences": {}
}