{
  "_format": "hh-sol-artifact-1",
  "contractName": "Adamant",
  "sourceName": "contracts/Adamant.sol",
  "abi": [
    {
      "inputs": [],
      "stateMutability": "nonpayable",
      "type": "constructor"
    },
    {
      "anonymous": false,
      "inputs": [
        {
          "indexed": true,
          "internalType": "address",
          "name": "owner",
          "type": "address"
        },
        {
          "indexed": true,
          "internalType": "address",
          "name": "spender",
          "type": "address"
        },
        {
          "indexed": false,
          "internalType": "uint256",
          "name": "value",
          "type": "uint256"
        }
      ],
      "name": "Approval",
      "type": "event"
    },
    {
      "anonymous": false,
      "inputs": [
        {
          "indexed": false,
          "internalType": "uint256",
          "name": "minTokensBeforeSwap",
          "type": "uint256"
        }
      ],
      "name": "MinTokensBeforeSwapUpdated",
      "type": "event"
    },
    {
      "anonymous": false,
      "inputs": [
        {
          "indexed": true,
          "internalType": "address",
          "name": "previousOwner",
          "type": "address"
        },
        {
          "indexed": true,
          "internalType": "address",
          "name": "newOwner",
          "type": "address"
        }
      ],
      "name": "OwnershipTransferred",
      "type": "event"
    },
    {
      "anonymous": false,
      "inputs": [
        {
          "indexed": false,
          "internalType": "uint256",
          "name": "tokensSwapped",
          "type": "uint256"
        },
        {
          "indexed": false,
          "internalType": "uint256",
          "name": "ethReceived",
          "type": "uint256"
        },
        {
          "indexed": false,
          "internalType": "uint256",
          "name": "tokensIntoLiqudity",
          "type": "uint256"
        }
      ],
      "name": "SwapAndLiquify",
      "type": "event"
    },
    {
      "anonymous": false,
      "inputs": [
        {
          "indexed": false,
          "internalType": "bool",
          "name": "enabled",
          "type": "bool"
        }
      ],
      "name": "SwapAndLiquifyEnabledUpdated",
      "type": "event"
    },
    {
      "anonymous": false,
      "inputs": [
        {
          "indexed": true,
          "internalType": "address",
          "name": "from",
          "type": "address"
        },
        {
          "indexed": true,
          "internalType": "address",
          "name": "to",
          "type": "address"
        },
        {
          "indexed": false,
          "internalType": "uint256",
          "name": "value",
          "type": "uint256"
        }
      ],
      "name": "Transfer",
      "type": "event"
    },
    {
      "anonymous": false,
      "inputs": [
        {
          "indexed": true,
          "internalType": "address",
          "name": "from",
          "type": "address"
        },
        {
          "indexed": true,
          "internalType": "address",
          "name": "burnAddress",
          "type": "address"
        },
        {
          "indexed": false,
          "internalType": "uint256",
          "name": "value",
          "type": "uint256"
        }
      ],
      "name": "TransferBurn",
      "type": "event"
    },
    {
      "inputs": [],
      "name": "_burnFee",
      "outputs": [
        {
          "internalType": "uint256",
          "name": "",
          "type": "uint256"
        }
      ],
      "stateMutability": "view",
      "type": "function"
    },
    {
      "inputs": [],
      "name": "_devWalletAddress",
      "outputs": [
        {
          "internalType": "address payable",
          "name": "",
          "type": "address"
        }
      ],
      "stateMutability": "view",
      "type": "function"
    },
    {
      "inputs": [],
      "name": "_holdersFee",
      "outputs": [
        {
          "internalType": "uint256",
          "name": "",
          "type": "uint256"
        }
      ],
      "stateMutability": "view",
      "type": "function"
    },
    {
      "inputs": [],
      "name": "_liquidityFee",
      "outputs": [
        {
          "internalType": "uint256",
          "name": "",
          "type": "uint256"
        }
      ],
      "stateMutability": "view",
      "type": "function"
    },
    {
      "inputs": [],
      "name": "_maxTxAmount",
      "outputs": [
        {
          "internalType": "uint256",
          "name": "",
          "type": "uint256"
        }
      ],
      "stateMutability": "view",
      "type": "function"
    },
    {
      "inputs": [],
      "name": "_previousBurnFee",
      "outputs": [
        {
          "internalType": "uint256",
          "name": "",
          "type": "uint256"
        }
      ],
      "stateMutability": "view",
      "type": "function"
    },
    {
      "inputs": [
        {
          "internalType": "address payable",
          "name": "devAddress",
          "type": "address"
        }
      ],
      "name": "_setCharityWallet",
      "outputs": [],
      "stateMutability": "nonpayable",
      "type": "function"
    },
    {
      "inputs": [
        {
          "internalType": "address",
          "name": "owner",
          "type": "address"
        },
        {
          "internalType": "address",
          "name": "spender",
          "type": "address"
        }
      ],
      "name": "allowance",
      "outputs": [
        {
          "internalType": "uint256",
          "name": "",
          "type": "uint256"
        }
      ],
      "stateMutability": "view",
      "type": "function"
    },
    {
      "inputs": [
        {
          "internalType": "address",
          "name": "spender",
          "type": "address"
        },
        {
          "internalType": "uint256",
          "name": "amount",
          "type": "uint256"
        }
      ],
      "name": "approve",
      "outputs": [
        {
          "internalType": "bool",
          "name": "",
          "type": "bool"
        }
      ],
      "stateMutability": "nonpayable",
      "type": "function"
    },
    {
      "inputs": [
        {
          "internalType": "address",
          "name": "account",
          "type": "address"
        }
      ],
      "name": "balanceOf",
      "outputs": [
        {
          "internalType": "uint256",
          "name": "",
          "type": "uint256"
        }
      ],
      "stateMutability": "view",
      "type": "function"
    },
    {
      "inputs": [],
      "name": "decimals",
      "outputs": [
        {
          "internalType": "uint8",
          "name": "",
          "type": "uint8"
        }
      ],
      "stateMutability": "view",
      "type": "function"
    },
    {
      "inputs": [
        {
          "internalType": "address",
          "name": "spender",
          "type": "address"
        },
        {
          "internalType": "uint256",
          "name": "subtractedValue",
          "type": "uint256"
        }
      ],
      "name": "decreaseAllowance",
      "outputs": [
        {
          "internalType": "bool",
          "name": "",
          "type": "bool"
        }
      ],
      "stateMutability": "nonpayable",
      "type": "function"
    },
    {
      "inputs": [
        {
          "internalType": "uint256",
          "name": "tAmount",
          "type": "uint256"
        }
      ],
      "name": "deliver",
      "outputs": [],
      "stateMutability": "nonpayable",
      "type": "function"
    },
    {
      "inputs": [
        {
          "internalType": "address",
          "name": "account",
          "type": "address"
        }
      ],
      "name": "excludeFromFee",
      "outputs": [],
      "stateMutability": "nonpayable",
      "type": "function"
    },
    {
      "inputs": [
        {
          "internalType": "address",
          "name": "account",
          "type": "address"
        }
      ],
      "name": "excludeFromReward",
      "outputs": [],
      "stateMutability": "nonpayable",
      "type": "function"
    },
    {
      "inputs": [],
      "name": "geUnlockTime",
      "outputs": [
        {
          "internalType": "uint256",
          "name": "",
          "type": "uint256"
        }
      ],
      "stateMutability": "view",
      "type": "function"
    },
    {
      "inputs": [
        {
          "internalType": "address",
          "name": "account",
          "type": "address"
        }
      ],
      "name": "includeInFee",
      "outputs": [],
      "stateMutability": "nonpayable",
      "type": "function"
    },
    {
      "inputs": [
        {
          "internalType": "address",
          "name": "account",
          "type": "address"
        }
      ],
      "name": "includeInReward",
      "outputs": [],
      "stateMutability": "nonpayable",
      "type": "function"
    },
    {
      "inputs": [
        {
          "internalType": "address",
          "name": "spender",
          "type": "address"
        },
        {
          "internalType": "uint256",
          "name": "addedValue",
          "type": "uint256"
        }
      ],
      "name": "increaseAllowance",
      "outputs": [
        {
          "internalType": "bool",
          "name": "",
          "type": "bool"
        }
      ],
      "stateMutability": "nonpayable",
      "type": "function"
    },
    {
      "inputs": [
        {
          "internalType": "address",
          "name": "account",
          "type": "address"
        }
      ],
      "name": "isExcludedFromFee",
      "outputs": [
        {
          "internalType": "bool",
          "name": "",
          "type": "bool"
        }
      ],
      "stateMutability": "view",
      "type": "function"
    },
    {
      "inputs": [
        {
          "internalType": "address",
          "name": "account",
          "type": "address"
        }
      ],
      "name": "isExcludedFromReward",
      "outputs": [
        {
          "internalType": "bool",
          "name": "",
          "type": "bool"
        }
      ],
      "stateMutability": "view",
      "type": "function"
    },
    {
      "inputs": [
        {
          "internalType": "uint256",
          "name": "time",
          "type": "uint256"
        }
      ],
      "name": "lock",
      "outputs": [],
      "stateMutability": "nonpayable",
      "type": "function"
    },
    {
      "inputs": [],
      "name": "m_addressPayCoin",
      "outputs": [
        {
          "internalType": "address",
          "name": "",
          "type": "address"
        }
      ],
      "stateMutability": "view",
      "type": "function"
    },
    {
      "inputs": [],
      "name": "name",
      "outputs": [
        {
          "internalType": "string",
          "name": "",
          "type": "string"
        }
      ],
      "stateMutability": "view",
      "type": "function"
    },
    {
      "inputs": [],
      "name": "owner",
      "outputs": [
        {
          "internalType": "address",
          "name": "",
          "type": "address"
        }
      ],
      "stateMutability": "view",
      "type": "function"
    },
    {
      "inputs": [
        {
          "internalType": "uint256",
          "name": "tAmount",
          "type": "uint256"
        },
        {
          "internalType": "bool",
          "name": "deductTransferFee",
          "type": "bool"
        }
      ],
      "name": "reflectionFromToken",
      "outputs": [
        {
          "internalType": "uint256",
          "name": "",
          "type": "uint256"
        }
      ],
      "stateMutability": "view",
      "type": "function"
    },
    {
      "inputs": [],
      "name": "renounceOwnership",
      "outputs": [],
      "stateMutability": "nonpayable",
      "type": "function"
    },
    {
      "inputs": [
        {
          "internalType": "uint256",
          "name": "burnFee",
          "type": "uint256"
        }
      ],
      "name": "setBurnFeePercent",
      "outputs": [],
      "stateMutability": "nonpayable",
      "type": "function"
    },
    {
      "inputs": [
        {
          "internalType": "uint256",
          "name": "holdersFee",
          "type": "uint256"
        }
      ],
      "name": "setHoldersFeePercent",
      "outputs": [],
      "stateMutability": "nonpayable",
      "type": "function"
    },
    {
      "inputs": [
        {
          "internalType": "uint256",
          "name": "liquidityFee",
          "type": "uint256"
        }
      ],
      "name": "setLiquidityFeePercent",
      "outputs": [],
      "stateMutability": "nonpayable",
      "type": "function"
    },
    {
      "inputs": [
        {
          "internalType": "uint256",
          "name": "maxTxPercent",
          "type": "uint256"
        }
      ],
      "name": "setMaxTxPercent",
      "outputs": [],
      "stateMutability": "nonpayable",
      "type": "function"
    },
    {
      "inputs": [
        {
          "internalType": "bool",
          "name": "_enabled",
          "type": "bool"
        }
      ],
      "name": "setSwapAndLiquifyEnabled",
      "outputs": [],
      "stateMutability": "nonpayable",
      "type": "function"
    },
    {
      "inputs": [],
      "name": "swapAndLiquifyEnabled",
      "outputs": [
        {
          "internalType": "bool",
          "name": "",
          "type": "bool"
        }
      ],
      "stateMutability": "view",
      "type": "function"
    },
    {
      "inputs": [],
      "name": "symbol",
      "outputs": [
        {
          "internalType": "string",
          "name": "",
          "type": "string"
        }
      ],
      "stateMutability": "view",
      "type": "function"
    },
    {
      "inputs": [
        {
          "internalType": "uint256",
          "name": "rAmount",
          "type": "uint256"
        }
      ],
      "name": "tokenFromReflection",
      "outputs": [
        {
          "internalType": "uint256",
          "name": "",
          "type": "uint256"
        }
      ],
      "stateMutability": "view",
      "type": "function"
    },
    {
      "inputs": [],
      "name": "totalFees",
      "outputs": [
        {
          "internalType": "uint256",
          "name": "",
          "type": "uint256"
        }
      ],
      "stateMutability": "view",
      "type": "function"
    },
    {
      "inputs": [],
      "name": "totalSupply",
      "outputs": [
        {
          "internalType": "uint256",
          "name": "",
          "type": "uint256"
        }
      ],
      "stateMutability": "view",
      "type": "function"
    },
    {
      "inputs": [
        {
          "internalType": "address",
          "name": "recipient",
          "type": "address"
        },
        {
          "internalType": "uint256",
          "name": "amount",
          "type": "uint256"
        }
      ],
      "name": "transfer",
      "outputs": [
        {
          "internalType": "bool",
          "name": "",
          "type": "bool"
        }
      ],
      "stateMutability": "nonpayable",
      "type": "function"
    },
    {
      "inputs": [
        {
          "internalType": "address",
          "name": "sender",
          "type": "address"
        },
        {
          "internalType": "address",
          "name": "recipient",
          "type": "address"
        },
        {
          "internalType": "uint256",
          "name": "amount",
          "type": "uint256"
        }
      ],
      "name": "transferFrom",
      "outputs": [
        {
          "internalType": "bool",
          "name": "",
          "type": "bool"
        }
      ],
      "stateMutability": "nonpayable",
      "type": "function"
    },
    {
      "inputs": [
        {
          "internalType": "address",
          "name": "newOwner",
          "type": "address"
        }
      ],
      "name": "transferOwnership",
      "outputs": [],
      "stateMutability": "nonpayable",
      "type": "function"
    },
    {
      "inputs": [],
      "name": "uniswapV2Pair",
      "outputs": [
        {
          "internalType": "address",
          "name": "",
          "type": "address"
        }
      ],
      "stateMutability": "view",
      "type": "function"
    },
    {
      "inputs": [],
      "name": "uniswapV2Router",
      "outputs": [
        {
          "internalType": "contract IUniswapV2Router02",
          "name": "",
          "type": "address"
        }
      ],
      "stateMutability": "view",
      "type": "function"
    },
    {
      "inputs": [],
      "name": "unlock",
      "outputs": [],
      "stateMutability": "nonpayable",
      "type": "function"
    },
    {
      "stateMutability": "payable",
      "type": "receive"
    }
  ],
  "bytecode": "0x60c0604052683635c9adc5dea0000060098190556200002190600019620005bc565b6200002f906000196200055b565b600a55604080518082019091526007808252661059185b585b9d60ca1b60209092019182526200006291600c9162000462565b506040805180820190915260048082526341444d4360e01b60209092019182526200009091600d9162000462565b50600e805460ff191660091790556005600f81905560105560026011819055601255600360138190556014556016805460ff60a81b196001600160a01b031991821661dead1716909155683635c9adc5dea000006017556706f05b59d3b200006018556019805490911673727aae5ea522cb0feb3e7983c7866881bb220a9f1790553480156200011f57600080fd5b5060006200012c6200044f565b600080546001600160a01b0319166001600160a01b0383169081178255604051929350917f8be0079c531659141344cd1fd0a4f28419497f9722a3daafe3b4186f6b6457e0908290a350601580546001600160a01b031916730a912a13a1297320d634f5a54bc3554e3a994545179055600a5460036000620001ad6200044f565b6001600160a01b03166001600160a01b0316815260200190815260200160002081905550600073d99d1c33f9fc3444f8101754abc46c52416550d19050806001600160a01b031663c45a01556040518163ffffffff1660e01b815260040160206040518083038186803b1580156200022457600080fd5b505afa15801562000239573d6000803e3d6000fd5b505050506040513d601f19601f820116820180604052508101906200025f919062000508565b6001600160a01b031663c9c6539630836001600160a01b031663ad5c46486040518163ffffffff1660e01b815260040160206040518083038186803b158015620002a857600080fd5b505afa158015620002bd573d6000803e3d6000fd5b505050506040513d601f19601f82011682018060405250810190620002e3919062000508565b6040518363ffffffff1660e01b81526004016200030292919062000538565b602060405180830381600087803b1580156200031d57600080fd5b505af115801562000332573d6000803e3d6000fd5b505050506040513d601f19601f8201168201806040525081019062000358919062000508565b6001600160601b0319606091821b811660a0529082901b166080526001600660006200038362000453565b6001600160a01b03908116825260208083019390935260409182016000908120805495151560ff199687161790553081526006845282812080548616600190811790915560168054841683528483208054881683179055549092168152600790935291208054909216179055620003f96200044f565b6001600160a01b031660006001600160a01b03167fddf252ad1be2c89b69c2b068fc378daa952ba7f163c4a11628f55a4df523b3ef60095460405162000440919062000552565b60405180910390a350620005dd565b3390565b6000546001600160a01b031690565b82805462000470906200057f565b90600052602060002090601f016020900481019282620004945760008555620004df565b82601f10620004af57805160ff1916838001178555620004df565b82800160010185558215620004df579182015b82811115620004df578251825591602001919060010190620004c2565b50620004ed929150620004f1565b5090565b5b80821115620004ed5760008155600101620004f2565b6000602082840312156200051a578081fd5b81516001600160a01b038116811462000531578182fd5b9392505050565b6001600160a01b0392831681529116602082015260400190565b90815260200190565b6000828210156200057a57634e487b7160e01b81526011600452602481fd5b500390565b6002810460018216806200059457607f821691505b60208210811415620005b657634e487b7160e01b600052602260045260246000fd5b50919050565b600082620005d857634e487b7160e01b81526012600452602481fd5b500690565b60805160601c60a05160601c612dd26200063360003960008181610c9f01526115df0152600081816107ff01528181611d8a01528181611e6001528181611e9c01528181611f0e0152611f350152612dd26000f3fe6080604052600436106102605760003560e01c8063715018a611610144578063b6c52324116100b6578063d543dbeb1161007a578063d543dbeb14610692578063dd467064146106b2578063dd62ed3e146106d2578063ea2f0b37146106f2578063f2fde38b14610712578063fa80f7ee1461073257610267565b8063b6c5232414610608578063c0b0fda21461061d578063c49b9a8014610632578063cea2695814610652578063d047e4b71461067257610267565b80638ee88c53116101085780638ee88c531461056957806395d89b4114610589578063a457c2d71461059e578063a69df4b5146105be578063a9059cbb146105d3578063b425bac3146105f357610267565b8063715018a6146104ea5780637d1db4a5146104ff57806388d2e2571461051457806388f82020146105345780638da5cb5b1461055457610267565b80633685d419116101dd57806349bd5a5e116101a157806349bd5a5e1461044b5780634a74bb021461046057806352390c02146104755780635342acb4146104955780636bc87c3a146104b557806370a08231146104ca57610267565b80633685d419146103a957806339509351146103cb5780633bd5d173146103eb578063437823ec1461040b5780634549b0391461042b57610267565b80631d158d5c116102245780631d158d5c1461031d57806323b872dd1461033257806328b93a55146103525780632d83811914610367578063313ce5671461038757610267565b806306fdde031461026c578063095ea7b31461029757806313114a9d146102c45780631694505e146102e657806318160ddd1461030857610267565b3661026757005b600080fd5b34801561027857600080fd5b50610281610747565b60405161028e919061273d565b60405180910390f35b3480156102a357600080fd5b506102b76102b236600461262e565b6107d9565b60405161028e9190612732565b3480156102d057600080fd5b506102d96107f7565b60405161028e9190612ba0565b3480156102f257600080fd5b506102fb6107fd565b60405161028e91906126e3565b34801561031457600080fd5b506102d9610821565b34801561032957600080fd5b506102d9610827565b34801561033e57600080fd5b506102b761034d3660046125ee565b61082d565b34801561035e57600080fd5b506102d96108b4565b34801561037357600080fd5b506102d9610382366004612673565b6108ba565b34801561039357600080fd5b5061039c610906565b60405161028e9190612c2f565b3480156103b557600080fd5b506103c96103c436600461257e565b61090f565b005b3480156103d757600080fd5b506102b76103e636600461262e565b610ada565b3480156103f757600080fd5b506103c9610406366004612673565b610b28565b34801561041757600080fd5b506103c961042636600461257e565b610be5565b34801561043757600080fd5b506102d961044636600461268b565b610c3e565b34801561045757600080fd5b506102fb610c9d565b34801561046c57600080fd5b506102b7610cc1565b34801561048157600080fd5b506103c961049036600461257e565b610cd1565b3480156104a157600080fd5b506102b76104b036600461257e565b610dff565b3480156104c157600080fd5b506102d9610e1d565b3480156104d657600080fd5b506102d96104e536600461257e565b610e23565b3480156104f657600080fd5b506103c9610e85565b34801561050b57600080fd5b506102d9610ef2565b34801561052057600080fd5b506103c961052f366004612673565b610ef8565b34801561054057600080fd5b506102b761054f36600461257e565b610f32565b34801561056057600080fd5b506102fb610f50565b34801561057557600080fd5b506103c9610584366004612673565b610f5f565b34801561059557600080fd5b50610281610f99565b3480156105aa57600080fd5b506102b76105b936600461262e565b610fa8565b3480156105ca57600080fd5b506103c9611010565b3480156105df57600080fd5b506102b76105ee36600461262e565b6110aa565b3480156105ff57600080fd5b506102fb6110be565b34801561061457600080fd5b506102d96110cd565b34801561062957600080fd5b506102d96110d3565b34801561063e57600080fd5b506103c961064d366004612659565b6110d9565b34801561065e57600080fd5b506103c961066d366004612673565b611160565b34801561067e57600080fd5b506103c961068d36600461257e565b61119a565b34801561069e57600080fd5b506103c96106ad366004612673565b6111f1565b3480156106be57600080fd5b506103c96106cd366004612673565b61124c565b3480156106de57600080fd5b506102d96106ed3660046125b6565b6112dc565b3480156106fe57600080fd5b506103c961070d36600461257e565b611307565b34801561071e57600080fd5b506103c961072d36600461257e565b61135d565b34801561073e57600080fd5b506102fb611401565b6060600c805461075690612cab565b80601f016020809104026020016040519081016040528092919081815260200182805461078290612cab565b80156107cf5780601f106107a4576101008083540402835291602001916107cf565b820191906000526020600020905b8154815290600101906020018083116107b257829003601f168201915b5050505050905090565b60006107ed6107e6611410565b8484611414565b5060015b92915050565b600b5490565b7f000000000000000000000000000000000000000000000000000000000000000081565b60095490565b60115481565b600061083a8484846114c8565b6108aa84610846611410565b6108a585604051806060016040528060288152602001612d30602891396001600160a01b038a16600090815260056020526040812090610884611410565b6001600160a01b03168152602081019190915260400160002054919061169b565b611414565b5060019392505050565b60145481565b6000600a548211156108e75760405162461bcd60e51b81526004016108de906127d3565b60405180910390fd5b60006108f16116d5565b90506108fd83826116f8565b9150505b919050565b600e5460ff1690565b610917611410565b6000546001600160a01b039081169116146109445760405162461bcd60e51b81526004016108de906129d3565b6001600160a01b03811660009081526007602052604090205460ff1661097c5760405162461bcd60e51b81526004016108de906128dc565b60005b600854811015610ad657816001600160a01b0316600882815481106109b457634e487b7160e01b600052603260045260246000fd5b6000918252602090912001546001600160a01b03161415610ac457600880546109df90600190612c94565b815481106109fd57634e487b7160e01b600052603260045260246000fd5b600091825260209091200154600880546001600160a01b039092169183908110610a3757634e487b7160e01b600052603260045260246000fd5b600091825260208083209190910180546001600160a01b0319166001600160a01b039485161790559184168152600482526040808220829055600790925220805460ff191690556008805480610a9d57634e487b7160e01b600052603160045260246000fd5b600082815260209020810160001990810180546001600160a01b0319169055019055610ad6565b80610ace81612ce6565b91505061097f565b5050565b60006107ed610ae7611410565b846108a58560056000610af8611410565b6001600160a01b03908116825260208083019390935260409182016000908120918c168152925290205490611741565b6000610b32611410565b6001600160a01b03811660009081526007602052604090205490915060ff1615610b6e5760405162461bcd60e51b81526004016108de90612b11565b6000610b7983611770565b5050506001600160a01b038616600090815260036020526040902054939450610ba7939250849150506117cb565b6001600160a01b038316600090815260036020526040902055600a54610bcd90826117cb565b600a55600b54610bdd9084611741565b600b55505050565b610bed611410565b6000546001600160a01b03908116911614610c1a5760405162461bcd60e51b81526004016108de906129d3565b6001600160a01b03166000908152600660205260409020805460ff19166001179055565b6000600954831115610c625760405162461bcd60e51b81526004016108de90612913565b81610c82576000610c7284611770565b509496506107f195505050505050565b6000610c8d84611770565b509396506107f195505050505050565b7f000000000000000000000000000000000000000000000000000000000000000081565b601654600160a81b900460ff1681565b610cd9611410565b6000546001600160a01b03908116911614610d065760405162461bcd60e51b81526004016108de906129d3565b6001600160a01b03811660009081526007602052604090205460ff1615610d3f5760405162461bcd60e51b81526004016108de906128dc565b6001600160a01b03811660009081526003602052604090205415610d99576001600160a01b038116600090815260036020526040902054610d7f906108ba565b6001600160a01b0382166000908152600460205260409020555b6001600160a01b03166000818152600760205260408120805460ff191660019081179091556008805491820181559091527ff3f7a9fe364faab93b216da50a3214154f22a0a2b415b23a84c8169e8b636ee30180546001600160a01b0319169091179055565b6001600160a01b031660009081526006602052604090205460ff1690565b600f5481565b6001600160a01b03811660009081526007602052604081205460ff1615610e6357506001600160a01b038116600090815260046020526040902054610901565b6001600160a01b0382166000908152600360205260409020546107f1906108ba565b610e8d611410565b6000546001600160a01b03908116911614610eba5760405162461bcd60e51b81526004016108de906129d3565b600080546040516001600160a01b0390911690600080516020612d58833981519152908390a3600080546001600160a01b0319169055565b60175481565b610f00611410565b6000546001600160a01b03908116911614610f2d5760405162461bcd60e51b81526004016108de906129d3565b601155565b6001600160a01b031660009081526007602052604090205460ff1690565b6000546001600160a01b031690565b610f67611410565b6000546001600160a01b03908116911614610f945760405162461bcd60e51b81526004016108de906129d3565b600f55565b6060600d805461075690612cab565b60006107ed610fb5611410565b846108a585604051806060016040528060258152602001612d786025913960056000610fdf611410565b6001600160a01b03908116825260208083019390935260409182016000908120918d1681529252902054919061169b565b6001546001600160a01b0316331461103a5760405162461bcd60e51b81526004016108de90612b5d565b600254421161105b5760405162461bcd60e51b81526004016108de90612ada565b600154600080546040516001600160a01b039384169390911691600080516020612d5883398151915291a3600154600080546001600160a01b0319166001600160a01b03909216919091179055565b60006107ed6110b7611410565b84846114c8565b6015546001600160a01b031681565b60025490565b60135481565b6110e1611410565b6000546001600160a01b0390811691161461110e5760405162461bcd60e51b81526004016108de906129d3565b6016805460ff60a81b1916600160a81b831515021790556040517f53726dfcaf90650aa7eb35524f4d3220f07413c8d6cb404cc8c18bf5591bc15990611155908390612732565b60405180910390a150565b611168611410565b6000546001600160a01b039081169116146111955760405162461bcd60e51b81526004016108de906129d3565b601355565b6111a2611410565b6000546001600160a01b039081169116146111cf5760405162461bcd60e51b81526004016108de906129d3565b601580546001600160a01b0319166001600160a01b0392909216919091179055565b6111f9611410565b6000546001600160a01b039081169116146112265760405162461bcd60e51b81526004016108de906129d3565b61124660646112408360095461180d90919063ffffffff16565b906116f8565b60175550565b611254611410565b6000546001600160a01b039081169116146112815760405162461bcd60e51b81526004016108de906129d3565b60008054600180546001600160a01b03199081166001600160a01b038416179091551690556112b08142612c3d565b600255600080546040516001600160a01b0390911690600080516020612d58833981519152908390a350565b6001600160a01b03918216600090815260056020908152604080832093909416825291909152205490565b61130f611410565b6000546001600160a01b0390811691161461133c5760405162461bcd60e51b81526004016108de906129d3565b6001600160a01b03166000908152600660205260409020805460ff19169055565b611365611410565b6000546001600160a01b039081169116146113925760405162461bcd60e51b81526004016108de906129d3565b6001600160a01b0381166113b85760405162461bcd60e51b81526004016108de9061281d565b600080546040516001600160a01b0380851693921691600080516020612d5883398151915291a3600080546001600160a01b0319166001600160a01b0392909216919091179055565b6019546001600160a01b031681565b3390565b6001600160a01b03831661143a5760405162461bcd60e51b81526004016108de90612a96565b6001600160a01b0382166114605760405162461bcd60e51b81526004016108de90612863565b6001600160a01b0380841660008181526005602090815260408083209487168084529490915290819020849055517f8c5be1e5ebec7d5bd14f71427d1e84f3dd0314c0f7b2291e5b200ac8c7c3b925906114bb908590612ba0565b60405180910390a3505050565b6001600160a01b0383166114ee5760405162461bcd60e51b81526004016108de90612a51565b6001600160a01b0382166115145760405162461bcd60e51b81526004016108de90612790565b600081116115345760405162461bcd60e51b81526004016108de90612a08565b61153c610f50565b6001600160a01b0316836001600160a01b0316141580156115765750611560610f50565b6001600160a01b0316826001600160a01b031614155b1561159d5760175481111561159d5760405162461bcd60e51b81526004016108de9061294a565b60006115a830610e23565b905060175481106115b857506017545b601854811080159081906115d65750601654600160a01b900460ff16155b801561161457507f00000000000000000000000000000000000000000000000000000000000000006001600160a01b0316856001600160a01b031614155b80156116295750601654600160a81b900460ff165b1561163c57601854915061163c82611852565b6001600160a01b03851660009081526006602052604090205460019060ff168061167e57506001600160a01b03851660009081526006602052604090205460ff165b15611687575060005b61169386868684611915565b505050505050565b600081848411156116bf5760405162461bcd60e51b81526004016108de919061273d565b5060006116cc8486612c94565b95945050505050565b60008060006116e2611a89565b90925090506116f182826116f8565b9250505090565b600061173a83836040518060400160405280601a81526020017f536166654d6174683a206469766973696f6e206279207a65726f000000000000815250611c46565b9392505050565b60008061174e8385612c3d565b90508381101561173a5760405162461bcd60e51b81526004016108de906128a5565b600080600080600080600080600080600061178a8c611c74565b935093509350935060008060006117ab8f8786886117a66116d5565b611cc3565b919f509d509b509599509397509195509350505050919395979092949650565b600061173a83836040518060400160405280601e81526020017f536166654d6174683a207375627472616374696f6e206f766572666c6f77000081525061169b565b60008261181c575060006107f1565b60006118288385612c75565b9050826118358583612c55565b1461173a5760405162461bcd60e51b81526004016108de90612992565b6016805460ff60a01b1916600160a01b17905560006118728260026116f8565b9050600061188083836117cb565b905060006118988261189286866117cb565b906117cb565b9050476118a484611d25565b60006118b047836117cb565b90506118bc8482611f08565b6118c583611feb565b7f17bbfb9a6069321b6ded73bd96327c9e6b7212a5cd51ff219cd61370acafb5618582866040516118f893929190612c19565b60405180910390a150506016805460ff60a01b1916905550505050565b806119225761192261202d565b6001600160a01b03841660009081526007602052604090205460ff16801561196357506001600160a01b03831660009081526007602052604090205460ff16155b156119785761197384848461206a565b611a76565b6001600160a01b03841660009081526007602052604090205460ff161580156119b957506001600160a01b03831660009081526007602052604090205460ff165b156119c9576119738484846121f8565b6001600160a01b03841660009081526007602052604090205460ff16158015611a0b57506001600160a01b03831660009081526007602052604090205460ff16155b15611a1b576119738484846122b7565b6001600160a01b03841660009081526007602052604090205460ff168015611a5b57506001600160a01b03831660009081526007602052604090205460ff165b15611a6b57611973848484612311565b611a768484846122b7565b80611a8357611a8361239a565b50505050565b600a546009546000918291825b600854811015611c1457826003600060088481548110611ac657634e487b7160e01b600052603260045260246000fd5b60009182526020808320909101546001600160a01b031683528201929092526040019020541180611b3f5750816004600060088481548110611b1857634e487b7160e01b600052603260045260246000fd5b60009182526020808320909101546001600160a01b03168352820192909252604001902054115b15611b5657600a5460095494509450505050611c42565b611baa6003600060088481548110611b7e57634e487b7160e01b600052603260045260246000fd5b60009182526020808320909101546001600160a01b0316835282019290925260400190205484906117cb565b9250611c006004600060088481548110611bd457634e487b7160e01b600052603260045260246000fd5b60009182526020808320909101546001600160a01b0316835282019290925260400190205483906117cb565b915080611c0c81612ce6565b915050611a96565b50600954600a54611c24916116f8565b821015611c3c57600a54600954935093505050611c42565b90925090505b9091565b60008183611c675760405162461bcd60e51b81526004016108de919061273d565b5060006116cc8486612c55565b6000806000806000611c85866123ae565b90506000611c92876123ca565b90506000611c9f886123e6565b90506000611cb38261189285818d896117cb565b9993985091965094509092505050565b6000808080611cd2898661180d565b90506000611ce0898761180d565b90506000611cee888861180d565b90506000611cfc8a8961180d565b90506000611d1082611892858189896117cb565b949d949c50929a509298505050505050505050565b6040805160028082526060820183526000926020830190803683370190505090503081600081518110611d6857634e487b7160e01b600052603260045260246000fd5b60200260200101906001600160a01b031690816001600160a01b0316815250507f00000000000000000000000000000000000000000000000000000000000000006001600160a01b031663ad5c46486040518163ffffffff1660e01b815260040160206040518083038186803b158015611de157600080fd5b505afa158015611df5573d6000803e3d6000fd5b505050506040513d601f19601f82011682018060405250810190611e19919061259a565b81600181518110611e3a57634e487b7160e01b600052603260045260246000fd5b60200260200101906001600160a01b031690816001600160a01b031681525050611e85307f000000000000000000000000000000000000000000000000000000000000000084611414565b60405163791ac94760e01b81526001600160a01b037f0000000000000000000000000000000000000000000000000000000000000000169063791ac94790611eda908590600090869030904290600401612ba9565b600060405180830381600087803b158015611ef457600080fd5b505af1158015611693573d6000803e3d6000fd5b611f33307f000000000000000000000000000000000000000000000000000000000000000084611414565b7f00000000000000000000000000000000000000000000000000000000000000006001600160a01b031663f305d719823085600080611f70610f50565b426040518863ffffffff1660e01b8152600401611f92969594939291906126f7565b6060604051808303818588803b158015611fab57600080fd5b505af1158015611fbf573d6000803e3d6000fd5b50505050506040513d601f19601f82011682018060405250810190611fe491906126b6565b5050505050565b611ff481611d25565b6015546040516001600160a01b03909116904780156108fc02916000818181858888f19350505050158015610ad6573d6000803e3d6000fd5b60115415801561203d5750600f54155b1561204757612068565b60118054601255600f80546010556013805460145560009283905590829055555b565b600080600080600080600061207e88611770565b96509650965096509650965096506120c488600460008d6001600160a01b03166001600160a01b03168152602001908152602001600020546117cb90919063ffffffff16565b6001600160a01b038b166000908152600460209081526040808320939093556003905220546120f390886117cb565b6001600160a01b03808c1660009081526003602052604080822093909355908b16815220546121229087611741565b6001600160a01b038a1660009081526003602052604090205561214481612402565b61214d826124c2565b612157858461254a565b6016546040516001600160a01b03918216918c16907f61a114146810c6557dedd314dae835429358ca71b5ffdccc4ef651238ae0f7d490612199908590612ba0565b60405180910390a3886001600160a01b03168a6001600160a01b03167fddf252ad1be2c89b69c2b068fc378daa952ba7f163c4a11628f55a4df523b3ef866040516121e49190612ba0565b60405180910390a350505050505050505050565b600080600080600080600061220c88611770565b965096509650965096509650965061225287600360008d6001600160a01b03166001600160a01b03168152602001908152602001600020546117cb90919063ffffffff16565b6001600160a01b03808c16600090815260036020908152604080832094909455918c168152600490915220546122889085611741565b6001600160a01b038a166000908152600460209081526040808320939093556003905220546121229087611741565b60008060008060008060006122cb88611770565b96509650965096509650965096506120f387600360008d6001600160a01b03166001600160a01b03168152602001908152602001600020546117cb90919063ffffffff16565b600080600080600080600061232588611770565b965096509650965096509650965061236b88600460008d6001600160a01b03166001600160a01b03168152602001908152602001600020546117cb90919063ffffffff16565b6001600160a01b038b1660009081526004602090815260408083209390935560039052205461225290886117cb565b601254601155601054600f55601454601355565b60006107f160646112406011548561180d90919063ffffffff16565b60006107f16064611240600f548561180d90919063ffffffff16565b60006107f160646112406013548561180d90919063ffffffff16565b600061240c6116d5565b9050600061241a838361180d565b6016546001600160a01b03166000908152600360205260409020549091506124429082611741565b601680546001600160a01b03908116600090815260036020908152604080832095909555925490911681526007909152205460ff16156124bd576016546001600160a01b03166000908152600460205260409020546124a19084611741565b6016546001600160a01b03166000908152600460205260409020555b505050565b60006124cc6116d5565b905060006124da838361180d565b306000908152600360205260409020549091506124f79082611741565b3060009081526003602090815260408083209390935560079052205460ff16156124bd57306000908152600460205260409020546125359084611741565b30600090815260046020526040902055505050565b600a5461255790836117cb565b600a55600b546125679082611741565b600b555050565b8035801515811461090157600080fd5b60006020828403121561258f578081fd5b813561173a81612d17565b6000602082840312156125ab578081fd5b815161173a81612d17565b600080604083850312156125c8578081fd5b82356125d381612d17565b915060208301356125e381612d17565b809150509250929050565b600080600060608486031215612602578081fd5b833561260d81612d17565b9250602084013561261d81612d17565b929592945050506040919091013590565b60008060408385031215612640578182fd5b823561264b81612d17565b946020939093013593505050565b60006020828403121561266a578081fd5b61173a8261256e565b600060208284031215612684578081fd5b5035919050565b6000806040838503121561269d578182fd5b823591506126ad6020840161256e565b90509250929050565b6000806000606084860312156126ca578283fd5b8351925060208401519150604084015190509250925092565b6001600160a01b0391909116815260200190565b6001600160a01b039687168152602081019590955260408501939093526060840191909152909216608082015260a081019190915260c00190565b901515815260200190565b6000602080835283518082850152825b818110156127695785810183015185820160400152820161274d565b8181111561277a5783604083870101525b50601f01601f1916929092016040019392505050565b60208082526023908201527f45524332303a207472616e7366657220746f20746865207a65726f206164647260408201526265737360e81b606082015260800190565b6020808252602a908201527f416d6f756e74206d757374206265206c657373207468616e20746f74616c207260408201526965666c656374696f6e7360b01b606082015260800190565b60208082526026908201527f4f776e61626c653a206e6577206f776e657220697320746865207a65726f206160408201526564647265737360d01b606082015260800190565b60208082526022908201527f45524332303a20617070726f766520746f20746865207a65726f206164647265604082015261737360f01b606082015260800190565b6020808252601b908201527f536166654d6174683a206164646974696f6e206f766572666c6f770000000000604082015260600190565b6020808252601b908201527f4163636f756e7420697320616c7265616479206578636c756465640000000000604082015260600190565b6020808252601f908201527f416d6f756e74206d757374206265206c657373207468616e20737570706c7900604082015260600190565b60208082526028908201527f5472616e7366657220616d6f756e74206578636565647320746865206d6178546040820152673c20b6b7bab73a1760c11b606082015260800190565b60208082526021908201527f536166654d6174683a206d756c7469706c69636174696f6e206f766572666c6f6040820152607760f81b606082015260800190565b6020808252818101527f4f776e61626c653a2063616c6c6572206973206e6f7420746865206f776e6572604082015260600190565b60208082526029908201527f5472616e7366657220616d6f756e74206d7573742062652067726561746572206040820152687468616e207a65726f60b81b606082015260800190565b60208082526025908201527f45524332303a207472616e736665722066726f6d20746865207a65726f206164604082015264647265737360d81b606082015260800190565b60208082526024908201527f45524332303a20617070726f76652066726f6d20746865207a65726f206164646040820152637265737360e01b606082015260800190565b6020808252601f908201527f436f6e7472616374206973206c6f636b656420756e74696c2037206461797300604082015260600190565b6020808252602c908201527f4578636c75646564206164647265737365732063616e6e6f742063616c6c207460408201526b3434b990333ab731ba34b7b760a11b606082015260800190565b60208082526023908201527f596f7520646f6e27742068617665207065726d697373696f6e20746f20756e6c6040820152626f636b60e81b606082015260800190565b90815260200190565b600060a082018783526020878185015260a0604085015281875180845260c0860191508289019350845b81811015612bf85784516001600160a01b031683529383019391830191600101612bd3565b50506001600160a01b03969096166060850152505050608001529392505050565b9283526020830191909152604082015260600190565b60ff91909116815260200190565b60008219821115612c5057612c50612d01565b500190565b600082612c7057634e487b7160e01b81526012600452602481fd5b500490565b6000816000190483118215151615612c8f57612c8f612d01565b500290565b600082821015612ca657612ca6612d01565b500390565b600281046001821680612cbf57607f821691505b60208210811415612ce057634e487b7160e01b600052602260045260246000fd5b50919050565b6000600019821415612cfa57612cfa612d01565b5060010190565b634e487b7160e01b600052601160045260246000fd5b6001600160a01b0381168114612d2c57600080fd5b5056fe45524332303a207472616e7366657220616d6f756e74206578636565647320616c6c6f77616e63658be0079c531659141344cd1fd0a4f28419497f9722a3daafe3b4186f6b6457e045524332303a2064656372656173656420616c6c6f77616e63652062656c6f77207a65726fa2646970667358221220a82f409ed685cbd2431b4ed73e0e67a4c603a6e6c0e820564904c41a5c76164564736f6c63430008000033",
  "linkReferences": {},
  "deployedLinkReferences": {}
}