{
  "_format": "hh-sol-artifact-1",
  "contractName": "Ownable",
  "sourceName": "contracts/Adamant.sol",
  "abi": [
    {
      "inputs": [],
      "stateMutability": "nonpayable",
      "type": "constructor"
    },
    {
      "anonymous": false,
      "inputs": [
        {
          "indexed": true,
          "internalType": "address",
          "name": "previousOwner",
          "type": "address"
        },
        {
          "indexed": true,
          "internalType": "address",
          "name": "newOwner",
          "type": "address"
        }
      ],
      "name": "OwnershipTransferred",
      "type": "event"
    },
    {
      "inputs": [],
      "name": "geUnlockTime",
      "outputs": [
        {
          "internalType": "uint256",
          "name": "",
          "type": "uint256"
        }
      ],
      "stateMutability": "view",
      "type": "function"
    },
    {
      "inputs": [
        {
          "internalType": "uint256",
          "name": "time",
          "type": "uint256"
        }
      ],
      "name": "lock",
      "outputs": [],
      "stateMutability": "nonpayable",
      "type": "function"
    },
    {
      "inputs": [],
      "name": "owner",
      "outputs": [
        {
          "internalType": "address",
          "name": "",
          "type": "address"
        }
      ],
      "stateMutability": "view",
      "type": "function"
    },
    {
      "inputs": [],
      "name": "renounceOwnership",
      "outputs": [],
      "stateMutability": "nonpayable",
      "type": "function"
    },
    {
      "inputs": [
        {
          "internalType": "address",
          "name": "newOwner",
          "type": "address"
        }
      ],
      "name": "transferOwnership",
      "outputs": [],
      "stateMutability": "nonpayable",
      "type": "function"
    },
    {
      "inputs": [],
      "name": "unlock",
      "outputs": [],
      "stateMutability": "nonpayable",
      "type": "function"
    }
  ],
  "bytecode": "0x608060405234801561001057600080fd5b50600061001b61006a565b600080546001600160a01b0319166001600160a01b0383169081178255604051929350917f8be0079c531659141344cd1fd0a4f28419497f9722a3daafe3b4186f6b6457e0908290a35061006e565b3390565b6105018061007d6000396000f3fe608060405234801561001057600080fd5b50600436106100625760003560e01c8063715018a6146100675780638da5cb5b14610071578063a69df4b51461008f578063b6c5232414610097578063dd467064146100ac578063f2fde38b146100bf575b600080fd5b61006f6100d2565b005b610079610148565b6040516100869190610375565b60405180910390f35b61006f610157565b61009f6101f1565b604051610086919061047e565b61006f6100ba36600461035d565b6101f7565b61006f6100cd36600461032f565b610287565b6100da61032b565b6000546001600160a01b039081169116146101105760405162461bcd60e51b8152600401610107906103cf565b60405180910390fd5b600080546040516001600160a01b03909116906000805160206104ac833981519152908390a3600080546001600160a01b0319169055565b6000546001600160a01b031690565b6001546001600160a01b031633146101815760405162461bcd60e51b81526004016101079061043b565b60025442116101a25760405162461bcd60e51b815260040161010790610404565b600154600080546040516001600160a01b0393841693909116916000805160206104ac83398151915291a3600154600080546001600160a01b0319166001600160a01b03909216919091179055565b60025490565b6101ff61032b565b6000546001600160a01b0390811691161461022c5760405162461bcd60e51b8152600401610107906103cf565b60008054600180546001600160a01b03199081166001600160a01b0384161790915516905561025b8142610487565b600255600080546040516001600160a01b03909116906000805160206104ac833981519152908390a350565b61028f61032b565b6000546001600160a01b039081169116146102bc5760405162461bcd60e51b8152600401610107906103cf565b6001600160a01b0381166102e25760405162461bcd60e51b815260040161010790610389565b600080546040516001600160a01b03808516939216916000805160206104ac83398151915291a3600080546001600160a01b0319166001600160a01b0392909216919091179055565b3390565b600060208284031215610340578081fd5b81356001600160a01b0381168114610356578182fd5b9392505050565b60006020828403121561036e578081fd5b5035919050565b6001600160a01b0391909116815260200190565b60208082526026908201527f4f776e61626c653a206e6577206f776e657220697320746865207a65726f206160408201526564647265737360d01b606082015260800190565b6020808252818101527f4f776e61626c653a2063616c6c6572206973206e6f7420746865206f776e6572604082015260600190565b6020808252601f908201527f436f6e7472616374206973206c6f636b656420756e74696c2037206461797300604082015260600190565b60208082526023908201527f596f7520646f6e27742068617665207065726d697373696f6e20746f20756e6c6040820152626f636b60e81b606082015260800190565b90815260200190565b600082198211156104a657634e487b7160e01b81526011600452602481fd5b50019056fe8be0079c531659141344cd1fd0a4f28419497f9722a3daafe3b4186f6b6457e0a2646970667358221220d821ad6c66c4127f788e78381ea62d0c92c70b2cb7767f6b3b70d698239bcee364736f6c63430008000033",
  "linkReferences": {},
  "deployedLinkReferences": {}
}